:020000040000FA
:02000000F42FDB
:100C1200F00083160313981C0F2E102E0A2E700854
:100C220083120313990008007E088A007F0882005D
:100C320015268000840A04087D0603190034FF0A81
:100C42000319FE0A192E70347134703420346F3453
:100C52002034743468347934613467346F34203426
:100C6200E93420346D347534693474346F3420348B
:100C720066346F3464346134003083120313A90084
:100C82000030A8002530A7008030A60024273A3083
:100C92008400553083120313B6000408B7001930DC
:100CA200B8003608840083130008B900B60A370872
:100CB200840039088000B70AB80B522ED301D40140
:100CC2007D2E53083A3E8400000809260D30831217
:100CD2000313B800AF30B700B630B600B60B6F2EB4
:100CE200B70B6F2EB80B6F2E013083120313D3078D
:100CF2000318D40A0030D40753083A3E8400831301
:100D02000008031D852E862E622E002883120313EF
:100D1200A101F31F8D2E8E2E9B2EF009F109F209EF
:100D2200F309F00A0319F10A0319F20A0319F30A83
:100D3200A101A10AF71F9E2E9F2EAE2EF409F509DE
:100D4200F609F709F40A0319F50A0319F60A031951
:100D5200F70A0130F8007808A1060030A50000303B
:100D6200A4000030A3000030A200730872047104D2
:100D720070040319BD2EBE2E0B2FA001A00ACE2E89
:100D82000130F8000310F00DF10DF20DF30DF80B28
:100D9200C32E0130F8007808A007F31FD12ED22EFF
:100DA200C12E0130F8000310A20DA30DA40DA50D54
:100DB200F80BD42E73087702031DE92E720876020F
:100DC200031DE92E71087502031DE92E70087402D5
:100DD200031CEC2EED2EFC2E7008F4027108031C8D
:100DE200710FF5027208031C720FF6027308031CDE
:100DF200730FF702221401300310F30CF20CF10C02
:100E0200F00CFF3E031DFD2E0130A002031D0A2F30
:100E12000B2FD22E210803190F2F102F1B2FA209DF
:100E2200A309A409A509A20A0319A30A0319A40A7A
:100E32000319A50A2508F3002408F2002308F1008B
:100E42002208F0000800831203132608AA002708CC
:100E5200AB002808AC002908AD0006300310AA0D2B
:100E6200AB0DAC0DAD0DFF3E031D2F2F2D08F30072
:100E72002C08F2002B08F1002A08F0002608AE0028
:100E82002708AF002808B0002908B1000630031077
:100E9200AE0DAF0DB00DB10DFF3E031D482F8030DA
:100EA200B2009630B3009830B4000030B5002E087E
:100EB200B2022F08031C2F0F5F2F602FB3023008DE
:100EC200031C300F652F662FB4023108031C310F4B
:100ED2006B2F6C2FB5023508F7003408F600330883
:100EE200F5003208F40087267108FA007008F9004C
:100EF20001307A02003003197902031C812F822FFC
:100F0200DA2F831203132608AA002708AB00280849
:100F1200AC002908AD0004300310AA0DAB0DAC0DD6
:100F2200AD0DFF3E031D8D2F2D08F3002C08F2009E
:100F32002B08F1002A08F0002608AE002708AF00AF
:100F42002808B0002908B10004300310AE0DAF0D1F
:100F5200B00DB10DFF3E031DA62F8030B2009630BA
:100F6200B3009830B4000030B5002E08B2022F084A
:100F7200031C2F0FBD2FBE2FB3023008031C300FEE
:100F8200C32FC42FB4023108031C310FC92FCA2F3B
:100F9200B5023508F7003408F6003308F5003208C8
:100FA200F40087267108FA007008F900831603130B
:100FB200181501307A020030031979020318E22F62
:100FC200E32FF32F79088316031399001812831263
:100FD20003139817831603138614061198168312A7
:100FE20003131816080083136E30FD000630FE004E
:0E0FF2002430FF0055308400192683013D2E67
:00000001FF
