:020000040000FA
:020000000528D1
:040002000034003492
:08000800090083120313073005
:100010009F008316031307308500831603130030F7
:1000200086008312031385018312031386010612CF
:1000300086168312031306148611861006154F20A8
:1000400006108615861006152528051D00000519C1
:100050002A20252805184720051C4B202F28051D80
:100060000000051934202F2885184720851C4B20B7
:100070003928051D000005193E2039288312031375
:10008000061683120313861406144628462886147F
:100090004F208610080006144F20061008006D300F
:1000A000A1005E30A2001A30A300A10B5528A20BBC
:0800B0005528A30B5528080098
:00000001FF
