:020000040000FA
:020000000A28CC
:10000800FE00030EF2000A08F30039280B28F0015D
:10001800F10183010F28831603138501831203134B
:1000280005108B170B178B1681018230831603136B
:100038008100E8307006033003197106031D252876
:1000480026281D28031083120313051C0314031804
:100058002E2832288312031305143528831203131C
:100068000510F001F1011D280A280B1D3C283D2828
:1000780047280130F0070318F10A0030F10783120E
:10008800031381010B1173088A00720E8300FE0EA0
:040098007E0E0900CF
:00000001FF
