:020000040000FA
:020000000528D1
:040002000034003492
:08000800090083120313073005
:100010009F0083160313FF308500831603130030FF
:100020008600831203132C309700831603137F304E
:10003000920083120313053092008312031366307B
:100040009500831203130610861005182820252812
:1000500085182D20851C3120080086143520861037
:10006000080006143520061008006D30A1005E302F
:10007000A2001A30A300A10B3B28A20B3B28A30B24
:040080003B28080011
:00000001FF
