:020000040000FA
:020000000528D1
:040002000034003492
:08000800090083160313FF3009
:100010008500831603130030870083160313003016
:1000200086008316031300309F00232083120313DE
:10003000720883120313870083120313710883125B
:100040000313860015288312031381309F00831247
:1000500003133920831203131F158312031339204E
:10006000831603131E08F100831203131E08F20007
:1000700008000430F300CC30F400F40B3D28640099
:06008000F30B3B28080011
:00000001FF
