:020000040000FA
:020000001B28BB
:040002000034003492
:080008000B11F50B0900133088
:10001000F5003F2083120313720883120313990023
:1000200051200A3083120313990051200D3083129E
:1000300003139900090083160313FF30850083160C
:10004000031307138316031300309F008316031353
:100050004030990083160313981618158312031362
:100060009817181683160313863081008312031322
:10007000A0308B00831203131330F5003E28831247
:10008000031381309F008312031351208312031343
:100090001F15831203135120831203131E08F2004D
:1000A00008000430F300CC30F400F40B5528640051
:0600B000F30B53280800C9
:00000001FF
