:020000040000FA
:02000000F42FDB
:100CDA00F00083160313981C732E742E6E2E700860
:100CEA0083120313990008007E088A007F08820095
:100CFA0079268000840A04087D0603190034FF0A55
:100D0A000319FE0A7D2E6D3465347534203464343B
:100D1A0065347534733420346E3461346F3420345E
:100D2A006634613463346F3420346934643465342E
:100D3A00693461340034383084005230831203132A
:100D4A00B4000408B5001830B600340884008313D0
:100D5A000008B700B40A3508840037088000B50ACD
:100D6A00B60BAA2ED001D10107309F00013083169D
:100D7A0003138500803083120313A6002530A700D1
:100D8A00F426E82E051CCA2ECB2EE82E5008383E33
:100D9A008400831300086D26013083120313D007E1
:100DAA000318D10A0030D107063083120313B600A4
:100DBA001330B500AD30B400B40BE12EB50BE12E03
:100DCA00B60BE12E000000308312031351021930D2
:100DDA0003195002031CF22EF32EC72E0028831289
:100DEA0003132708A9002608A800A80EA90EF030A8
:100DFA00A90528080F39A904F030A8052808F00029
:100E0A002908F100F201F3012708AB002608AA001D
:100E1A00AA0EAB0EF030AB052A080F39AB04F0303E
:100E2A00AA052A08AC002B08AD00AE01AF010030BC
:100E3A00B0000930B1003D30B2000030B3002C08D8
:100E4A00B0022D08031C2D0F2B2F2C2FB1022E08B8
:100E5A00031C2E0F312F322FB2022F08031C2F0F23
:100E6A00372F382FB3023308F7003208F60031085B
:100E7A00F5003008F40057277108FA007008F900E5
:100E8A00790883160313990018151812831203138D
:100E9A0098178316031386140611981683120313E0
:100EAA001816080083120313A101F31F5D2F5E2F8A
:100EBA006B2FF009F109F209F309F00A0319F10A93
:100ECA000319F20A0319F30AA101A10AF71F6E2FE7
:100EDA006F2F7E2FF409F509F609F709F40A0319A9
:100EEA00F50A0319F60A0319F70A0130F800780817
:100EFA00A1060030A5000030A4000030A300003095
:100F0A00A200730872047104700403198D2F8E2FC6
:100F1A00DB2FA001A00A9E2F0130F8000310F00D6C
:100F2A00F10DF20DF30DF80B932F0130F80078084C
:100F3A00A007F31FA12FA22F912F0130F800031051
:100F4A00A20DA30DA40DA50DF80BA42F730877020B
:100F5A00031DB92F72087602031DB92F7108750295
:100F6A00031DB92F70087402031CBC2FBD2FCC2F90
:100F7A007008F4027108031C710FF5027208031C51
:100F8A00720FF6027308031C730FF7022214013062
:100F9A000310F30CF20CF10CF00CFF3E031DCD2FE5
:100FAA000130A002031DDA2FDB2FA22F210803191B
:100FBA00DF2FE02FEB2FA209A309A409A509A20A92
:100FCA000319A30A0319A40A0319A50A2508F30099
:100FDA002408F2002308F1002208F0000800831315
:100FEA006A30FD000630FE008830FF00523084006F
:060FFA007D268301A02EFC
:00000001FF
