:020000040000FA
:020000000528D1
:040002000034003492
:08000800090083120313073005
:100010009F0083160313BF30850083160313C0307F
:100020008600831203130330A500850186016F202B
:100030006F2067206B20612057205C209C20A51832
:100040001828522018289C20942083120313033070
:10005000A5006F2067206B202F209C202928851D5C
:100060000800051C0800061F061B84208C20382869
:100070006F2067206B203E209C203828851D0800BB
:10008000051C0800861F861B84208C2047286720BB
:100090006B204B204728851D0800051C08009C206C
:1000A00086165128851D0800051C08002328851D7B
:1000B00008008420A5030800051C08008C20A50367
:1000C000080005190800851B08006F200800051DA1
:1000D000080076200800851F08007D200800831294
:1000E00003130615861106148610080083120313E5
:1000F00006158615061486100800831203130614CD
:10010000861406158611080083120313061586153A
:10011000A320061486100800831203130614861405
:10012000A3200615861108000615861106108614F0
:10013000A320A3206F200800831203130615861541
:100140000614861408005430A2007030A300033057
:10015000A400A20BA928A30BA928A40BA92800007E
:02016000080095
:00000001FF
