:020000040000FA
:020000000528D1
:040002000034003492
:08000800090083120313073005
:100010009F008316031307308500831603130030F7
:1000200086008312031306148611482006108615D5
:10003000861006151B28051D0000851D8519212029
:100040001B2805184020051C44202628051D0000FB
:10005000851D85192C20262885184020851C4420C4
:100060003128051D0000851D851937203128831290
:100070000313061683120313861406143F283F2821
:100080008614482086100800061448200610080030
:100090006D30A1005E30A2001A30A300A10B4E28E3
:0A00A000A20B4E28A30B4E28080007
:00000001FF
