:020000040000FA
:020000000528D1
:040002000034003492
:08000800090083120313073005
:100010009F008316031307308500831603130030F7
:100020008600831203138601831203130519192016
:10003000142805182220051C1D2085184320851C26
:100040003B20272885184320851C3B202A2805199A
:100050002D20272805192F202A283B20312843202E
:10006000312805193420312883120313061586140C
:1000700006143A283A288312031386144B2083125D
:100080000313861008008312031306144B208312F7
:100090000313061008006D30A1005E30A2001A3074
:1000A000A300A10B5128A20B5128A30B5128080033
:00000001FF
