:020000040000FA
:020000000528D1
:040002000034003492
:0800080009008312031300300C
:10001000F6000130F4000130F500850186018316F9
:1000200003130F308500051600308600831203137A
:1000300007309F008312031306168616741D2128AD
:100040004028051C3128242806128612061386171C
:10005000F61CE720E720061686168613F40AF60A31
:100060001E2885181E280612861206178613F61CEF
:10007000E720E720061686160613F40AF60A1E285D
:100080000614051C5128442806128612061306156C
:100090008617E720E720E720061686168613061146
:1000A00054288518402844288614051D58285B28A4
:1000B000851D5E287E28851D9E28BE28751D612809
:1000C000DF28051C70286428061286120613061500
:1000D0008617E7200616861686130611F50A5E288F
:1000E00085185E2806128612061306158617E72065
:1000F0000616861686130611F50A5E28751D8128D8
:10010000DF28051C8128842806128612061306158E
:100110008617E7200616861686130611F50A90281C
:100120008518902806128612061786138615E72072
:100130000616861606138611F50A7E28751DA12857
:10014000DF288518A128A42806128612061786150E
:100150008613E7200616861606138611F50AB028C0
:10016000051CB02806128612061386170615E7200E
:100170000616861686130611F50A9E28751DC128D7
:10018000DF288518D028C42806128612061786157F
:100190008613E7200616861606138611F50ABE2872
:1001A000051CBE2806128612061786158613E72040
:1001B0000616861606138611F50ABE28542806125E
:1001C000861206138613061186118610DF28FF306B
:1001D000F100F2000230F300F10BEC28F20BEC28F6
:0601E000F30BEC280800FF
:02400E00183F59
:00000001FF
