:020000040000FA
:02000000F42FDB
:100CDA00F00083160313981C732E742E6E2E700860
:100CEA0083120313990008007E088A007F08820095
:100CFA0079268000840A04087D0603190034FF0A55
:100D0A000319FE0A7D2E65347534203473346F342A
:100D1A00753420346F342034623469347834613461
:100D2A006F3420346D34653472346D346F3420344A
:100D3A00653469346E340034003083120313A90019
:100D4A000030A8002530A7008030A600F0263A30EF
:100D5A008400553083120313B6000408B700193013
:100D6A00B8003608840083130008B900B60A3708A9
:100D7A00840039088000B70AB80BB62ED301D40113
:100D8A00E22E53083A3E840000086D26033083128F
:100D9A000313B8008A30B7005530B600B60BD32E0D
:100DAA00B70BD32EB80BD32E0000013083120313D6
:100DBA00D3070318D40A0030D40753083A3E8400F4
:100DCA0083130008031DEA2EEB2EC62E0A306D2669
:100DDA000D306D260028831203132608AA0027085F
:100DEA00AB002808AC002908AD0004300310AA0D96
:100DFA00AB0DAC0DAD0DFF3E031DFB2E2D08F30010
:100E0A002C08F2002B08F1002A08F0002608AE0090
:100E1A002708AF002808B0002908B10004300310E1
:100E2A00AE0DAF0DB00DB10DFF3E031D142F0030F6
:100E3A00B2000930B3003D30B4000030B5002E08CE
:100E4A00B2022F08031C2F0F2B2F2C2FB3023008AE
:100E5A00031C300F312F322FB4023108031C310F1B
:100E6A00372F382FB5023508F7003408F600330853
:100E7A00F5003208F40057277108FA007008F900E3
:100E8A00831603131815790899001812831203138D
:100E9A0098178316031386140611981683120313E0
:100EAA001816080083120313A101F31F5D2F5E2F8A
:100EBA006B2FF009F109F209F309F00A0319F10A93
:100ECA000319F20A0319F30AA101A10AF71F6E2FE7
:100EDA006F2F7E2FF409F509F609F709F40A0319A9
:100EEA00F50A0319F60A0319F70A0130F800780817
:100EFA00A1060030A5000030A4000030A300003095
:100F0A00A200730872047104700403198D2F8E2FC6
:100F1A00DB2FA001A00A9E2F0130F8000310F00D6C
:100F2A00F10DF20DF30DF80B932F0130F80078084C
:100F3A00A007F31FA12FA22F912F0130F800031051
:100F4A00A20DA30DA40DA50DF80BA42F730877020B
:100F5A00031DB92F72087602031DB92F7108750295
:100F6A00031DB92F70087402031CBC2FBD2FCC2F90
:100F7A007008F4027108031C710FF5027208031C51
:100F8A00720FF6027308031C730FF7022214013062
:100F9A000310F30CF20CF10CF00CFF3E031DCD2FE5
:100FAA000130A002031DDA2FDB2FA22F210803191B
:100FBA00DF2FE02FEB2FA209A309A409A509A20A92
:100FCA000319A30A0319A40A0319A50A2508F30099
:100FDA002408F2002308F1002208F0000800831315
:100FEA006E30FD000630FE008830FF005530840068
:060FFA007D268301A12EFB
:00000001FF
