:020000040000FA
:020000000528D1
:040002000034003492
:08000800090083120313073005
:100010009F008316031307308500831603130030F7
:10002000860083120313860183120313851583123E
:10003000031305191C20172805182520051C20204E
:1000400085184620851C3E202A2885184620851CB8
:100050003E202D28051930202A28051932202D2868
:100060003E203428462034280519372034288312AE
:1000700003130615861406143D283D288312031326
:1000800086144E2083120313861008008312031374
:1000900006144E2083120313061008006D30A100D1
:1000A0005E30A2001A30A300A10B5428A20B5428E2
:0600B000A30B5428080018
:00000001FF
