:020000040000FA
:02000000FE2FD1
:100EBE00831203130611861106148610080083127E
:100ECE0003130610861006158611080083120313ED
:100EDE0006148610061586110800831203130614D5
:100EEE008610061186110730F2001730F1006A30B5
:100EFE00F000F00B802FF10B802FF20B802F0000F3
:100F0E0083120313061586110800831203130615A8
:100F1E008611061086100730F2001730F1006A3085
:100F2E00F000F00B982FF10B982FF20B982F00007A
:100F3E00831203130614861008000730831203135E
:100F4E009F00BF30831603138500C03086008312C6
:100F5E00031385010330F3000030F40006166D27ED
:100F6E00831203130614861006158611851FC02FD3
:100F7E00C12FC22F662783120313051DC72FC82F3B
:100F8E00C92F5F2783120313851BCE2FCF2FD42F8C
:100F9E000519D22FD32FD42F6D2783120313051AC1
:100FAE00D92FDA2FE52F051CDD2FDE2FE52F8C270D
:100FBE00FF30F3070318F40AFF30F407831203130C
:100FCE00051EEA2FEB2FF62F0518EE2FEF2FF62F1B
:100FDE007427FF30F3070318F40AFF30F407831267
:100FEE0003130610861006118611B72F00288301F1
:020FFE00A42F1E
:00000001FF
